{
  "contractName": "bebarsToken",
  "abi": [
    {
      "constant": true,
      "inputs": [],
      "name": "totalsupply",
      "outputs": [
        {
          "name": "",
          "type": "uint256"
        }
      ],
      "payable": false,
      "stateMutability": "view",
      "type": "function"
    },
    {
      "inputs": [
        {
          "name": "",
          "type": "address"
        }
      ],
      "payable": false,
      "stateMutability": "nonpayable",
      "type": "constructor"
    }
  ],
  "bytecode": "0x608060405234801561001057600080fd5b506040516020806100f88339810180604052602081101561003057600080fd5b8101908080519060200190929190505050620f424060008190555050609e8061005a6000396000f3fe608060405260043610603f576000357c0100000000000000000000000000000000000000000000000000000000900463ffffffff16806372dd529b146044575b600080fd5b348015604f57600080fd5b506056606c565b6040518082815260200191505060405180910390f35b6000548156fea165627a7a72305820f7b80d33535765e52b6c16c70f9dbcd4dab3a6ab17fc567fbf29c2f7bfb32e830029",
  "source": "pragma solidity >=0.4.17;\r\n\r\ncontract bebarsToken {\r\n    //constructor\r\n    //set the tokens\r\n    //read the total number of the tokens\r\n    uint256 public totalsupply;\r\n    constructor (bebarsToken) public {\r\n        totalsupply = 1000000;\r\n\r\n        \r\n    }\r\n}",
  "sourcePath": "C:/users/Alienware/Desktop/token-sale/contracts/bebarstoken.sol",
  "compiler": {
    "name": "solc",
    "version": "0.5.0+commit.1d4f565a.Emscripten.clang"
  },
  "schemaVersion": "3.0.2",
  "updatedAt": "2019-02-18T19:09:33.779Z",
  "devdoc": {
    "methods": {}
  },
  "userdoc": {
    "methods": {}
  }
}